{
  "contractName": "LoyaltyToken",
  "abi": [
    {
      "inputs": [
        {
          "internalType": "string",
          "name": "name",
          "type": "string"
        },
        {
          "internalType": "string",
          "name": "symbol",
          "type": "string"
        }
      ],
      "stateMutability": "nonpayable",
      "type": "constructor"
    },
    {
      "inputs": [
        {
          "internalType": "address",
          "name": "spender",
          "type": "address"
        },
        {
          "internalType": "uint256",
          "name": "allowance",
          "type": "uint256"
        },
        {
          "internalType": "uint256",
          "name": "needed",
          "type": "uint256"
        }
      ],
      "name": "ERC20InsufficientAllowance",
      "type": "error"
    },
    {
      "inputs": [
        {
          "internalType": "address",
          "name": "sender",
          "type": "address"
        },
        {
          "internalType": "uint256",
          "name": "balance",
          "type": "uint256"
        },
        {
          "internalType": "uint256",
          "name": "needed",
          "type": "uint256"
        }
      ],
      "name": "ERC20InsufficientBalance",
      "type": "error"
    },
    {
      "inputs": [
        {
          "internalType": "address",
          "name": "approver",
          "type": "address"
        }
      ],
      "name": "ERC20InvalidApprover",
      "type": "error"
    },
    {
      "inputs": [
        {
          "internalType": "address",
          "name": "receiver",
          "type": "address"
        }
      ],
      "name": "ERC20InvalidReceiver",
      "type": "error"
    },
    {
      "inputs": [
        {
          "internalType": "address",
          "name": "sender",
          "type": "address"
        }
      ],
      "name": "ERC20InvalidSender",
      "type": "error"
    },
    {
      "inputs": [
        {
          "internalType": "address",
          "name": "spender",
          "type": "address"
        }
      ],
      "name": "ERC20InvalidSpender",
      "type": "error"
    },
    {
      "inputs": [
        {
          "internalType": "address",
          "name": "owner",
          "type": "address"
        }
      ],
      "name": "OwnableInvalidOwner",
      "type": "error"
    },
    {
      "inputs": [
        {
          "internalType": "address",
          "name": "account",
          "type": "address"
        }
      ],
      "name": "OwnableUnauthorizedAccount",
      "type": "error"
    },
    {
      "anonymous": false,
      "inputs": [
        {
          "indexed": true,
          "internalType": "address",
          "name": "owner",
          "type": "address"
        },
        {
          "indexed": true,
          "internalType": "address",
          "name": "spender",
          "type": "address"
        },
        {
          "indexed": false,
          "internalType": "uint256",
          "name": "value",
          "type": "uint256"
        }
      ],
      "name": "Approval",
      "type": "event"
    },
    {
      "anonymous": false,
      "inputs": [
        {
          "indexed": true,
          "internalType": "address",
          "name": "minter",
          "type": "address"
        }
      ],
      "name": "MinterAdded",
      "type": "event"
    },
    {
      "anonymous": false,
      "inputs": [
        {
          "indexed": true,
          "internalType": "address",
          "name": "minter",
          "type": "address"
        }
      ],
      "name": "MinterRemoved",
      "type": "event"
    },
    {
      "anonymous": false,
      "inputs": [
        {
          "indexed": true,
          "internalType": "address",
          "name": "previousOwner",
          "type": "address"
        },
        {
          "indexed": true,
          "internalType": "address",
          "name": "newOwner",
          "type": "address"
        }
      ],
      "name": "OwnershipTransferred",
      "type": "event"
    },
    {
      "anonymous": false,
      "inputs": [
        {
          "indexed": true,
          "internalType": "address",
          "name": "from",
          "type": "address"
        },
        {
          "indexed": true,
          "internalType": "address",
          "name": "to",
          "type": "address"
        },
        {
          "indexed": false,
          "internalType": "uint256",
          "name": "value",
          "type": "uint256"
        }
      ],
      "name": "Transfer",
      "type": "event"
    },
    {
      "inputs": [
        {
          "internalType": "address",
          "name": "owner",
          "type": "address"
        },
        {
          "internalType": "address",
          "name": "spender",
          "type": "address"
        }
      ],
      "name": "allowance",
      "outputs": [
        {
          "internalType": "uint256",
          "name": "",
          "type": "uint256"
        }
      ],
      "stateMutability": "view",
      "type": "function",
      "constant": true
    },
    {
      "inputs": [
        {
          "internalType": "address",
          "name": "spender",
          "type": "address"
        },
        {
          "internalType": "uint256",
          "name": "value",
          "type": "uint256"
        }
      ],
      "name": "approve",
      "outputs": [
        {
          "internalType": "bool",
          "name": "",
          "type": "bool"
        }
      ],
      "stateMutability": "nonpayable",
      "type": "function"
    },
    {
      "inputs": [
        {
          "internalType": "address",
          "name": "",
          "type": "address"
        }
      ],
      "name": "authorizedMinters",
      "outputs": [
        {
          "internalType": "bool",
          "name": "",
          "type": "bool"
        }
      ],
      "stateMutability": "view",
      "type": "function",
      "constant": true
    },
    {
      "inputs": [
        {
          "internalType": "address",
          "name": "account",
          "type": "address"
        }
      ],
      "name": "balanceOf",
      "outputs": [
        {
          "internalType": "uint256",
          "name": "",
          "type": "uint256"
        }
      ],
      "stateMutability": "view",
      "type": "function",
      "constant": true
    },
    {
      "inputs": [],
      "name": "decimals",
      "outputs": [
        {
          "internalType": "uint8",
          "name": "",
          "type": "uint8"
        }
      ],
      "stateMutability": "view",
      "type": "function",
      "constant": true
    },
    {
      "inputs": [],
      "name": "name",
      "outputs": [
        {
          "internalType": "string",
          "name": "",
          "type": "string"
        }
      ],
      "stateMutability": "view",
      "type": "function",
      "constant": true
    },
    {
      "inputs": [],
      "name": "owner",
      "outputs": [
        {
          "internalType": "address",
          "name": "",
          "type": "address"
        }
      ],
      "stateMutability": "view",
      "type": "function",
      "constant": true
    },
    {
      "inputs": [],
      "name": "renounceOwnership",
      "outputs": [],
      "stateMutability": "nonpayable",
      "type": "function"
    },
    {
      "inputs": [],
      "name": "symbol",
      "outputs": [
        {
          "internalType": "string",
          "name": "",
          "type": "string"
        }
      ],
      "stateMutability": "view",
      "type": "function",
      "constant": true
    },
    {
      "inputs": [],
      "name": "totalSupply",
      "outputs": [
        {
          "internalType": "uint256",
          "name": "",
          "type": "uint256"
        }
      ],
      "stateMutability": "view",
      "type": "function",
      "constant": true
    },
    {
      "inputs": [
        {
          "internalType": "address",
          "name": "to",
          "type": "address"
        },
        {
          "internalType": "uint256",
          "name": "value",
          "type": "uint256"
        }
      ],
      "name": "transfer",
      "outputs": [
        {
          "internalType": "bool",
          "name": "",
          "type": "bool"
        }
      ],
      "stateMutability": "nonpayable",
      "type": "function"
    },
    {
      "inputs": [
        {
          "internalType": "address",
          "name": "from",
          "type": "address"
        },
        {
          "internalType": "address",
          "name": "to",
          "type": "address"
        },
        {
          "internalType": "uint256",
          "name": "value",
          "type": "uint256"
        }
      ],
      "name": "transferFrom",
      "outputs": [
        {
          "internalType": "bool",
          "name": "",
          "type": "bool"
        }
      ],
      "stateMutability": "nonpayable",
      "type": "function"
    },
    {
      "inputs": [
        {
          "internalType": "address",
          "name": "newOwner",
          "type": "address"
        }
      ],
      "name": "transferOwnership",
      "outputs": [],
      "stateMutability": "nonpayable",
      "type": "function"
    },
    {
      "inputs": [
        {
          "internalType": "address",
          "name": "minter",
          "type": "address"
        }
      ],
      "name": "addMinter",
      "outputs": [],
      "stateMutability": "nonpayable",
      "type": "function"
    },
    {
      "inputs": [
        {
          "internalType": "address",
          "name": "minter",
          "type": "address"
        }
      ],
      "name": "removeMinter",
      "outputs": [],
      "stateMutability": "nonpayable",
      "type": "function"
    },
    {
      "inputs": [
        {
          "internalType": "address",
          "name": "to",
          "type": "address"
        },
        {
          "internalType": "uint256",
          "name": "amount",
          "type": "uint256"
        }
      ],
      "name": "mint",
      "outputs": [],
      "stateMutability": "nonpayable",
      "type": "function"
    },
    {
      "inputs": [
        {
          "internalType": "address",
          "name": "from",
          "type": "address"
        },
        {
          "internalType": "uint256",
          "name": "amount",
          "type": "uint256"
        }
      ],
      "name": "burn",
      "outputs": [],
      "stateMutability": "nonpayable",
      "type": "function"
    }
  ],
  "bytecode": "0x60806040523480156200001157600080fd5b50604051620010a6380380620010a6833981016040819052620000349162000206565b338282600362000045838262000318565b50600462000054828262000318565b505050600160a060020a0381166200009f576040517f1e4fbdf70000000000000000000000000000000000000000000000000000000081526000600482015260240160405180910390fd5b620000b381640100000000620000d6810204565b5050336000908152600660205260409020805460ff1916600117905550620003ea565b60058054600160a060020a03838116600160a060020a0319831681179093556040519116919082907f8be0079c531659141344cd1fd0a4f28419497f9722a3daafe3b4186f6b6457e090600090a35050565b7f4e487b7100000000000000000000000000000000000000000000000000000000600052604160045260246000fd5b600082601f8301126200016957600080fd5b81516001604060020a038082111562000186576200018662000128565b604051601f8301601f19908116603f01168101908282118183101715620001b157620001b162000128565b81604052838152602092508683858801011115620001ce57600080fd5b600091505b83821015620001f25785820183015181830184015290820190620001d3565b600093810190920192909252949350505050565b600080604083850312156200021a57600080fd5b82516001604060020a03808211156200023257600080fd5b620002408683870162000157565b935060208501519150808211156200025757600080fd5b50620002668582860162000157565b9150509250929050565b6002810460018216806200028557607f821691505b602082108103620002bf577f4e487b7100000000000000000000000000000000000000000000000000000000600052602260045260246000fd5b50919050565b601f82111562000313576000818152602081206020601f86010481016020861015620002ee5750805b6020601f860104820191505b818110156200030f57828155600101620002fa565b5050505b505050565b81516001604060020a0381111562000334576200033462000128565b6200034c8162000345845462000270565b84620002c5565b602080601f8311600181146200038857600084156200036b5750858301515b60028086026008870290910a60001904198216178655506200030f565b600085815260208120601f198616915b82811015620003b95788860151825594840194600190910190840162000398565b5085821015620003da57878501516008601f88160260020a60001904191681555b5050505050600202600101905550565b610cac80620003fa6000396000f3fe608060405234801561001057600080fd5b5060043610610128576000357c010000000000000000000000000000000000000000000000000000000090048063715018a6116100bf5780639dc29fac1161008e5780639dc29fac14610231578063a9059cbb14610244578063aa2fe91b14610257578063dd62ed3e1461027a578063f2fde38b146102b357600080fd5b8063715018a6146101f35780638da5cb5b146101fb57806395d89b4114610216578063983b2d561461021e57600080fd5b80633092afd5116100fb5780633092afd514610193578063313ce567146101a857806340c10f19146101b757806370a08231146101ca57600080fd5b806306fdde031461012d578063095ea7b31461014b57806318160ddd1461016e57806323b872dd14610180575b600080fd5b6101356102c6565b6040516101429190610ac4565b60405180910390f35b61015e610159366004610b2e565b610358565b6040519015158152602001610142565b6002545b604051908152602001610142565b61015e61018e366004610b58565b610372565b6101a66101a1366004610b94565b610396565b005b60405160128152602001610142565b6101a66101c5366004610b2e565b6103e7565b6101726101d8366004610b94565b600160a060020a031660009081526020819052604090205490565b6101a6610488565b600554604051600160a060020a039091168152602001610142565b61013561049c565b6101a661022c366004610b94565b6104ab565b6101a661023f366004610b2e565b6104ff565b61015e610252366004610b2e565b610597565b61015e610265366004610b94565b60066020526000908152604090205460ff1681565b610172610288366004610bb6565b600160a060020a03918216600090815260016020908152604080832093909416825291909152205490565b6101a66102c1366004610b94565b6105a5565b6060600380546102d590610be9565b80601f016020809104026020016040519081016040528092919081815260200182805461030190610be9565b801561034e5780601f106103235761010080835404028352916020019161034e565b820191906000526020600020905b81548152906001019060200180831161033157829003601f168201915b5050505050905090565b6000336103668185856105fc565b60019150505b92915050565b60003361038085828561060e565b61038b8585856106a6565b506001949350505050565b61039e610737565b600160a060020a038116600081815260066020526040808220805460ff19169055517fe94479a9f7e1952cc78f2d6baab678adc1b772d936c6583def489e524cb666929190a250565b3360009081526006602052604090205460ff168061040f5750600554600160a060020a031633145b61047a576040517f08c379a000000000000000000000000000000000000000000000000000000000815260206004820152601660248201527f4e6f7420617574686f72697a656420746f206d696e740000000000000000000060448201526064015b60405180910390fd5b610484828261077d565b5050565b610490610737565b61049a60006107cc565b565b6060600480546102d590610be9565b6104b3610737565b600160a060020a038116600081815260066020526040808220805460ff19166001179055517f6ae172837ea30b801fbfcdd4108aa1d5bf8ff775444fd70256b44e6bf3dfc3f69190a250565b3360009081526006602052604090205460ff16806105275750600554600160a060020a031633145b61058d576040517f08c379a000000000000000000000000000000000000000000000000000000000815260206004820152601660248201527f4e6f7420617574686f72697a656420746f206d696e74000000000000000000006044820152606401610471565b610484828261082b565b6000336103668185856106a6565b6105ad610737565b600160a060020a0381166105f0576040517f1e4fbdf700000000000000000000000000000000000000000000000000000000815260006004820152602401610471565b6105f9816107cc565b50565b610609838383600161087a565b505050565b600160a060020a038381166000908152600160209081526040808320938616835292905220546000198110156106a05781811015610691576040517ffb8f41b2000000000000000000000000000000000000000000000000000000008152600160a060020a03841660048201526024810182905260448101839052606401610471565b6106a08484848403600061087a565b50505050565b600160a060020a0383166106e9576040517f96c6fd1e00000000000000000000000000000000000000000000000000000000815260006004820152602401610471565b600160a060020a03821661072c576040517fec442f0500000000000000000000000000000000000000000000000000000000815260006004820152602401610471565b610609838383610981565b600554600160a060020a0316331461049a576040517f118cdaa7000000000000000000000000000000000000000000000000000000008152336004820152602401610471565b600160a060020a0382166107c0576040517fec442f0500000000000000000000000000000000000000000000000000000000815260006004820152602401610471565b61048460008383610981565b60058054600160a060020a0383811673ffffffffffffffffffffffffffffffffffffffff19831681179093556040519116919082907f8be0079c531659141344cd1fd0a4f28419497f9722a3daafe3b4186f6b6457e090600090a35050565b600160a060020a03821661086e576040517f96c6fd1e00000000000000000000000000000000000000000000000000000000815260006004820152602401610471565b61048482600083610981565b600160a060020a0384166108bd576040517fe602df0500000000000000000000000000000000000000000000000000000000815260006004820152602401610471565b600160a060020a038316610900576040517f94280d6200000000000000000000000000000000000000000000000000000000815260006004820152602401610471565b600160a060020a03808516600090815260016020908152604080832093871683529290522082905580156106a05782600160a060020a031684600160a060020a03167f8c5be1e5ebec7d5bd14f71427d1e84f3dd0314c0f7b2291e5b200ac8c7c3b9258460405161097391815260200190565b60405180910390a350505050565b600160a060020a0383166109ac5780600260008282546109a19190610c3c565b90915550610a379050565b600160a060020a03831660009081526020819052604090205481811015610a18576040517fe450d38c000000000000000000000000000000000000000000000000000000008152600160a060020a03851660048201526024810182905260448101839052606401610471565b600160a060020a03841660009081526020819052604090209082900390555b600160a060020a038216610a5357600280548290039055610a72565b600160a060020a03821660009081526020819052604090208054820190555b81600160a060020a031683600160a060020a03167fddf252ad1be2c89b69c2b068fc378daa952ba7f163c4a11628f55a4df523b3ef83604051610ab791815260200190565b60405180910390a3505050565b600060208083528351808285015260005b81811015610af157858101830151858201604001528201610ad5565b506000604082860101526040601f19601f8301168501019250505092915050565b8035600160a060020a0381168114610b2957600080fd5b919050565b60008060408385031215610b4157600080fd5b610b4a83610b12565b946020939093013593505050565b600080600060608486031215610b6d57600080fd5b610b7684610b12565b9250610b8460208501610b12565b9150604084013590509250925092565b600060208284031215610ba657600080fd5b610baf82610b12565b9392505050565b60008060408385031215610bc957600080fd5b610bd283610b12565b9150610be060208401610b12565b90509250929050565b600281046001821680610bfd57607f821691505b602082108103610c36577f4e487b7100000000000000000000000000000000000000000000000000000000600052602260045260246000fd5b50919050565b8082018082111561036c577f4e487b7100000000000000000000000000000000000000000000000000000000600052601160045260246000fdfea2646970667358221220008461337ba0405532fb71f145d44f0068180841578a583fb7736dfee73f4d5b64736f6c63430008150033",
  "immutableReferences": {},
  "source": "// contracts/LoyaltyToken.sol\r\n// SPDX-License-Identifier: MIT\r\npragma solidity ^0.8.21;\r\n\r\nimport \"@openzeppelin/contracts/token/ERC20/ERC20.sol\";\r\nimport \"@openzeppelin/contracts/access/Ownable.sol\";\r\n\r\ncontract LoyaltyToken is ERC20, Ownable {\r\n    mapping(address => bool) public authorizedMinters;\r\n    \r\n    event MinterAdded(address indexed minter);\r\n    event MinterRemoved(address indexed minter);\r\n    \r\n    modifier onlyMinter() {\r\n        require(authorizedMinters[msg.sender] || msg.sender == owner(), \"Not authorized to mint\");\r\n        _;\r\n    }\r\n    \r\n    constructor(string memory name, string memory symbol) \r\n        ERC20(name, symbol) \r\n        Ownable(msg.sender) {\r\n        authorizedMinters[msg.sender] = true;\r\n    }\r\n    \r\n    function addMinter(address minter) public onlyOwner {\r\n        authorizedMinters[minter] = true;\r\n        emit MinterAdded(minter);\r\n    }\r\n    \r\n    function removeMinter(address minter) public onlyOwner {\r\n        authorizedMinters[minter] = false;\r\n        emit MinterRemoved(minter);\r\n    }\r\n    \r\n    function mint(address to, uint256 amount) public onlyMinter {\r\n        _mint(to, amount);\r\n    }\r\n    \r\n    function burn(address from, uint256 amount) public onlyMinter {\r\n        _burn(from, amount);\r\n    }\r\n}",
  "sourcePath": "C:\\Users\\vishesh\\web3-loyalty-program\\contracts\\LoyaltyToken.sol",
  "compiler": {
    "name": "solc",
    "version": "0.8.21+commit.d9974bed.Emscripten.clang"
  },
  "schemaVersion": "3.4.16",
  "updatedAt": "2025-05-26T07:52:55.955Z",
  "networkType": "ethereum",
  "devdoc": {
    "errors": {
      "ERC20InsufficientAllowance(address,uint256,uint256)": [
        {
          "details": "Indicates a failure with the `spender`s `allowance`. Used in transfers.",
          "params": {
            "allowance": "Amount of tokens a `spender` is allowed to operate with.",
            "needed": "Minimum amount required to perform a transfer.",
            "spender": "Address that may be allowed to operate on tokens without being their owner."
          }
        }
      ],
      "ERC20InsufficientBalance(address,uint256,uint256)": [
        {
          "details": "Indicates an error related to the current `balance` of a `sender`. Used in transfers.",
          "params": {
            "balance": "Current balance for the interacting account.",
            "needed": "Minimum amount required to perform a transfer.",
            "sender": "Address whose tokens are being transferred."
          }
        }
      ],
      "ERC20InvalidApprover(address)": [
        {
          "details": "Indicates a failure with the `approver` of a token to be approved. Used in approvals.",
          "params": {
            "approver": "Address initiating an approval operation."
          }
        }
      ],
      "ERC20InvalidReceiver(address)": [
        {
          "details": "Indicates a failure with the token `receiver`. Used in transfers.",
          "params": {
            "receiver": "Address to which tokens are being transferred."
          }
        }
      ],
      "ERC20InvalidSender(address)": [
        {
          "details": "Indicates a failure with the token `sender`. Used in transfers.",
          "params": {
            "sender": "Address whose tokens are being transferred."
          }
        }
      ],
      "ERC20InvalidSpender(address)": [
        {
          "details": "Indicates a failure with the `spender` to be approved. Used in approvals.",
          "params": {
            "spender": "Address that may be allowed to operate on tokens without being their owner."
          }
        }
      ],
      "OwnableInvalidOwner(address)": [
        {
          "details": "The owner is not a valid owner account. (eg. `address(0)`)"
        }
      ],
      "OwnableUnauthorizedAccount(address)": [
        {
          "details": "The caller account is not authorized to perform an operation."
        }
      ]
    },
    "events": {
      "Approval(address,address,uint256)": {
        "details": "Emitted when the allowance of a `spender` for an `owner` is set by a call to {approve}. `value` is the new allowance."
      },
      "Transfer(address,address,uint256)": {
        "details": "Emitted when `value` tokens are moved from one account (`from`) to another (`to`). Note that `value` may be zero."
      }
    },
    "kind": "dev",
    "methods": {
      "allowance(address,address)": {
        "details": "See {IERC20-allowance}."
      },
      "approve(address,uint256)": {
        "details": "See {IERC20-approve}. NOTE: If `value` is the maximum `uint256`, the allowance is not updated on `transferFrom`. This is semantically equivalent to an infinite approval. Requirements: - `spender` cannot be the zero address."
      },
      "balanceOf(address)": {
        "details": "See {IERC20-balanceOf}."
      },
      "decimals()": {
        "details": "Returns the number of decimals used to get its user representation. For example, if `decimals` equals `2`, a balance of `505` tokens should be displayed to a user as `5.05` (`505 / 10 ** 2`). Tokens usually opt for a value of 18, imitating the relationship between Ether and Wei. This is the default value returned by this function, unless it's overridden. NOTE: This information is only used for _display_ purposes: it in no way affects any of the arithmetic of the contract, including {IERC20-balanceOf} and {IERC20-transfer}."
      },
      "name()": {
        "details": "Returns the name of the token."
      },
      "owner()": {
        "details": "Returns the address of the current owner."
      },
      "renounceOwnership()": {
        "details": "Leaves the contract without owner. It will not be possible to call `onlyOwner` functions. Can only be called by the current owner. NOTE: Renouncing ownership will leave the contract without an owner, thereby disabling any functionality that is only available to the owner."
      },
      "symbol()": {
        "details": "Returns the symbol of the token, usually a shorter version of the name."
      },
      "totalSupply()": {
        "details": "See {IERC20-totalSupply}."
      },
      "transfer(address,uint256)": {
        "details": "See {IERC20-transfer}. Requirements: - `to` cannot be the zero address. - the caller must have a balance of at least `value`."
      },
      "transferFrom(address,address,uint256)": {
        "details": "See {IERC20-transferFrom}. Skips emitting an {Approval} event indicating an allowance update. This is not required by the ERC. See {xref-ERC20-_approve-address-address-uint256-bool-}[_approve]. NOTE: Does not update the allowance if the current allowance is the maximum `uint256`. Requirements: - `from` and `to` cannot be the zero address. - `from` must have a balance of at least `value`. - the caller must have allowance for ``from``'s tokens of at least `value`."
      },
      "transferOwnership(address)": {
        "details": "Transfers ownership of the contract to a new account (`newOwner`). Can only be called by the current owner."
      }
    },
    "version": 1
  },
  "userdoc": {
    "kind": "user",
    "methods": {},
    "version": 1
  }
}