{
  "contractName": "LoyaltyProgram",
  "abi": [
    {
      "inputs": [
        {
          "internalType": "address",
          "name": "_tokenAddress",
          "type": "address"
        }
      ],
      "stateMutability": "nonpayable",
      "type": "constructor"
    },
    {
      "inputs": [
        {
          "internalType": "address",
          "name": "owner",
          "type": "address"
        }
      ],
      "name": "OwnableInvalidOwner",
      "type": "error"
    },
    {
      "inputs": [
        {
          "internalType": "address",
          "name": "account",
          "type": "address"
        }
      ],
      "name": "OwnableUnauthorizedAccount",
      "type": "error"
    },
    {
      "inputs": [],
      "name": "ReentrancyGuardReentrantCall",
      "type": "error"
    },
    {
      "anonymous": false,
      "inputs": [
        {
          "indexed": true,
          "internalType": "address",
          "name": "customer",
          "type": "address"
        }
      ],
      "name": "CustomerRegistered",
      "type": "event"
    },
    {
      "anonymous": false,
      "inputs": [
        {
          "indexed": true,
          "internalType": "address",
          "name": "previousOwner",
          "type": "address"
        },
        {
          "indexed": true,
          "internalType": "address",
          "name": "newOwner",
          "type": "address"
        }
      ],
      "name": "OwnershipTransferred",
      "type": "event"
    },
    {
      "anonymous": false,
      "inputs": [
        {
          "indexed": true,
          "internalType": "address",
          "name": "customer",
          "type": "address"
        },
        {
          "indexed": false,
          "internalType": "uint256",
          "name": "amount",
          "type": "uint256"
        },
        {
          "indexed": false,
          "internalType": "string",
          "name": "reason",
          "type": "string"
        }
      ],
      "name": "PointsEarned",
      "type": "event"
    },
    {
      "anonymous": false,
      "inputs": [
        {
          "indexed": true,
          "internalType": "address",
          "name": "customer",
          "type": "address"
        },
        {
          "indexed": false,
          "internalType": "uint256",
          "name": "rewardId",
          "type": "uint256"
        },
        {
          "indexed": false,
          "internalType": "uint256",
          "name": "cost",
          "type": "uint256"
        }
      ],
      "name": "PointsRedeemed",
      "type": "event"
    },
    {
      "anonymous": false,
      "inputs": [
        {
          "indexed": true,
          "internalType": "uint256",
          "name": "rewardId",
          "type": "uint256"
        },
        {
          "indexed": false,
          "internalType": "string",
          "name": "name",
          "type": "string"
        },
        {
          "indexed": false,
          "internalType": "uint256",
          "name": "cost",
          "type": "uint256"
        }
      ],
      "name": "RewardAdded",
      "type": "event"
    },
    {
      "inputs": [
        {
          "internalType": "address",
          "name": "",
          "type": "address"
        },
        {
          "internalType": "uint256",
          "name": "",
          "type": "uint256"
        }
      ],
      "name": "customerRedemptions",
      "outputs": [
        {
          "internalType": "bool",
          "name": "",
          "type": "bool"
        }
      ],
      "stateMutability": "view",
      "type": "function",
      "constant": true
    },
    {
      "inputs": [
        {
          "internalType": "address",
          "name": "",
          "type": "address"
        }
      ],
      "name": "customers",
      "outputs": [
        {
          "internalType": "bool",
          "name": "isRegistered",
          "type": "bool"
        },
        {
          "internalType": "uint256",
          "name": "totalEarned",
          "type": "uint256"
        },
        {
          "internalType": "uint256",
          "name": "totalRedeemed",
          "type": "uint256"
        },
        {
          "internalType": "uint256",
          "name": "lastActivity",
          "type": "uint256"
        }
      ],
      "stateMutability": "view",
      "type": "function",
      "constant": true
    },
    {
      "inputs": [],
      "name": "loyaltyToken",
      "outputs": [
        {
          "internalType": "contract LoyaltyToken",
          "name": "",
          "type": "address"
        }
      ],
      "stateMutability": "view",
      "type": "function",
      "constant": true
    },
    {
      "inputs": [],
      "name": "nextRewardId",
      "outputs": [
        {
          "internalType": "uint256",
          "name": "",
          "type": "uint256"
        }
      ],
      "stateMutability": "view",
      "type": "function",
      "constant": true
    },
    {
      "inputs": [],
      "name": "owner",
      "outputs": [
        {
          "internalType": "address",
          "name": "",
          "type": "address"
        }
      ],
      "stateMutability": "view",
      "type": "function",
      "constant": true
    },
    {
      "inputs": [],
      "name": "pointsPerPurchase",
      "outputs": [
        {
          "internalType": "uint256",
          "name": "",
          "type": "uint256"
        }
      ],
      "stateMutability": "view",
      "type": "function",
      "constant": true
    },
    {
      "inputs": [],
      "name": "renounceOwnership",
      "outputs": [],
      "stateMutability": "nonpayable",
      "type": "function"
    },
    {
      "inputs": [
        {
          "internalType": "uint256",
          "name": "",
          "type": "uint256"
        }
      ],
      "name": "rewards",
      "outputs": [
        {
          "internalType": "string",
          "name": "name",
          "type": "string"
        },
        {
          "internalType": "string",
          "name": "description",
          "type": "string"
        },
        {
          "internalType": "uint256",
          "name": "cost",
          "type": "uint256"
        },
        {
          "internalType": "bool",
          "name": "isActive",
          "type": "bool"
        },
        {
          "internalType": "uint256",
          "name": "stock",
          "type": "uint256"
        }
      ],
      "stateMutability": "view",
      "type": "function",
      "constant": true
    },
    {
      "inputs": [
        {
          "internalType": "address",
          "name": "newOwner",
          "type": "address"
        }
      ],
      "name": "transferOwnership",
      "outputs": [],
      "stateMutability": "nonpayable",
      "type": "function"
    },
    {
      "inputs": [],
      "name": "registerCustomer",
      "outputs": [],
      "stateMutability": "nonpayable",
      "type": "function"
    },
    {
      "inputs": [
        {
          "internalType": "address",
          "name": "customer",
          "type": "address"
        },
        {
          "internalType": "uint256",
          "name": "purchaseAmount",
          "type": "uint256"
        },
        {
          "internalType": "string",
          "name": "reason",
          "type": "string"
        }
      ],
      "name": "earnPoints",
      "outputs": [],
      "stateMutability": "nonpayable",
      "type": "function"
    },
    {
      "inputs": [
        {
          "internalType": "string",
          "name": "name",
          "type": "string"
        },
        {
          "internalType": "string",
          "name": "description",
          "type": "string"
        },
        {
          "internalType": "uint256",
          "name": "cost",
          "type": "uint256"
        },
        {
          "internalType": "uint256",
          "name": "stock",
          "type": "uint256"
        }
      ],
      "name": "addReward",
      "outputs": [],
      "stateMutability": "nonpayable",
      "type": "function"
    },
    {
      "inputs": [
        {
          "internalType": "uint256",
          "name": "rewardId",
          "type": "uint256"
        }
      ],
      "name": "redeemReward",
      "outputs": [],
      "stateMutability": "nonpayable",
      "type": "function"
    },
    {
      "inputs": [
        {
          "internalType": "address",
          "name": "customer",
          "type": "address"
        }
      ],
      "name": "getCustomerBalance",
      "outputs": [
        {
          "internalType": "uint256",
          "name": "",
          "type": "uint256"
        }
      ],
      "stateMutability": "view",
      "type": "function",
      "constant": true
    },
    {
      "inputs": [
        {
          "internalType": "uint256",
          "name": "_pointsPerPurchase",
          "type": "uint256"
        }
      ],
      "name": "setPointsPerPurchase",
      "outputs": [],
      "stateMutability": "nonpayable",
      "type": "function"
    },
    {
      "inputs": [
        {
          "internalType": "uint256",
          "name": "rewardId",
          "type": "uint256"
        }
      ],
      "name": "toggleRewardStatus",
      "outputs": [],
      "stateMutability": "nonpayable",
      "type": "function"
    }
  ],
  "bytecode": "0x60806040526001600655600a60075534801561001a57600080fd5b5060405161153a38038061153a83398101604081905261003991610104565b3380610078576040517f1e4fbdf70000000000000000000000000000000000000000000000000000000081526000600482015260240160405180910390fd5b61008a816401000000006100b4810204565b506001805560028054600160a060020a031916600160a060020a0392909216919091179055610134565b60008054600160a060020a03838116600160a060020a0319831681178455604051919092169283917f8be0079c531659141344cd1fd0a4f28419497f9722a3daafe3b4186f6b6457e09190a35050565b60006020828403121561011657600080fd5b8151600160a060020a038116811461012d57600080fd5b9392505050565b6113f7806101436000396000f3fe608060405234801561001057600080fd5b506004361061011d576000357c0100000000000000000000000000000000000000000000000000000000900480638da5cb5b116100b4578063f064997c11610083578063f064997c14610286578063f0c47cab1461028f578063f2fde38b146102a2578063f301af42146102b557600080fd5b80638da5cb5b146102385780639358c57914610249578063baac274d1461025c578063e75651d41461027d57600080fd5b806351a71b17116100f057806351a71b17146101b4578063715018a6146101c757806372699766146101cf578063770aa84d1461020d57600080fd5b80630cc156ca146101225780632138600314610137578063273570111461014a578063336989ae14610152575b600080fd5b610135610130366004610f9f565b6102d9565b005b610135610145366004611013565b6103e9565b6101356103f6565b61018d610160366004611048565b6003602081905260009182526040909120805460018201546002830154929093015460ff90911692919084565b60408051941515855260208501939093529183015260608201526080015b60405180910390f35b6101356101c2366004611013565b610620565b6101356109f4565b6101fd6101dd36600461106a565b600560209081526000928352604080842090915290825290205460ff1681565b60405190151581526020016101ab565b60025461022090600160a060020a031681565b604051600160a060020a0390911681526020016101ab565b600054600160a060020a0316610220565b610135610257366004611013565b610a08565b61026f61026a366004611048565b610a33565b6040519081526020016101ab565b61026f60075481565b61026f60065481565b61013561029d366004611094565b610ac1565b6101356102b0366004611048565b610c65565b6102c86102c3366004611013565b610cb9565b6040516101ab959493929190611131565b6102e1610dfd565b6040518060a0016040528085815260200184815260200183670de0b6b3a764000061030c91906111a3565b81526001602080830191909152604091820184905260065460009081526004909152208151819061033d908261125c565b5060208201516001820190610352908261125c565b5060408201516002820155606082015160038201805460ff19169115159190911790556080909101516004909101556006547f37c72785eab64b1da5fbd974ad0d1cabd3165254886ab44bb84dbb855c98db59856103b885670de0b6b3a76400006111a3565b6040516103c6929190611322565b60405180910390a2600680549060006103de83611344565b919050555050505050565b6103f1610dfd565b600755565b3360009081526003602052604090205460ff161561045e5760405160e560020a62461bcd02815260206004820152601b60248201527f437573746f6d657220616c72656164792072656769737465726564000000000060448201526064015b60405180910390fd5b60408051608081018252600180825260006020808401828152848601838152426060870190815233808652600394859052948890209651875460ff1916901515178755915194860194909455925160028086019190915592519301929092555491517f40c10f1900000000000000000000000000000000000000000000000000000000815260048101919091526802b5e3af16b18800006024820152600160a060020a03909116906340c10f1990604401600060405180830381600087803b15801561052957600080fd5b505af115801561053d573d6000803e3d6000fd5b505033600090815260036020526040812060010180546802b5e3af16b1880000945090925061056d90849061135d565b909155505060405133907f155e8619f4d23b96769599cb9af87da3e06a360082869c18578011da9a06e67090600090a233600160a060020a03167fb51b16cb4103a8ce441e52afe5cfabab49df83ba6b570adcde7724f975bdf7d06802b5e3af16b1880000604051610616918152604060208201819052600d908201527f57656c636f6d6520626f6e757300000000000000000000000000000000000000606082015260800190565b60405180910390a2565b610628610e43565b3360009081526003602052604090205460ff1661068a5760405160e560020a62461bcd02815260206004820152601760248201527f437573746f6d6572206e6f7420726567697374657265640000000000000000006044820152606401610455565b60008181526004602052604090206003015460ff166106ee5760405160e560020a62461bcd02815260206004820152601160248201527f526577617264206e6f74206163746976650000000000000000000000000000006044820152606401610455565b600081815260046020819052604090912001546107505760405160e560020a62461bcd02815260206004820152601360248201527f526577617264206f7574206f662073746f636b000000000000000000000000006044820152606401610455565b33600090815260056020908152604080832084845290915290205460ff16156107be5760405160e560020a62461bcd02815260206004820152601760248201527f52657761726420616c72656164792072656465656d65640000000000000000006044820152606401610455565b600081815260046020819052604091829020600290810154905492517f70a082310000000000000000000000000000000000000000000000000000000081523392810192909252918291600160a060020a03909116906370a0823190602401602060405180830381865afa15801561083a573d6000803e3d6000fd5b505050506040513d601f19601f8201168201806040525081019061085e9190611370565b10156108af5760405160e560020a62461bcd02815260206004820152601360248201527f496e73756666696369656e7420706f696e7473000000000000000000000000006044820152606401610455565b6002546040517f9dc29fac00000000000000000000000000000000000000000000000000000000815233600482015260248101839052600160a060020a0390911690639dc29fac90604401600060405180830381600087803b15801561091457600080fd5b505af1158015610928573d6000803e3d6000fd5b5050336000908152600360205260408120600201805485945090925061094f90849061135d565b9091555050336000908152600360208181526040808420429301929092558483526004908190529082200180549161098683611389565b9091555050336000818152600560209081526040808320868452825291829020805460ff1916600117905581518581529081018490527f8489cc43a42dbf9d33259b91b6c919c19644ac3b135272570f33f989637a1102910160405180910390a2506109f160018055565b50565b6109fc610dfd565b610a066000610e86565b565b610a10610dfd565b6000908152600460205260409020600301805460ff19811660ff90911615179055565b6002546040517f70a08231000000000000000000000000000000000000000000000000000000008152600160a060020a03838116600483015260009216906370a0823190602401602060405180830381865afa158015610a97573d6000803e3d6000fd5b505050506040513d601f19601f82011682018060405250810190610abb9190611370565b92915050565b610ac9610dfd565b600160a060020a03831660009081526003602052604090205460ff16610b345760405160e560020a62461bcd02815260206004820152601760248201527f437573746f6d6572206e6f7420726567697374657265640000000000000000006044820152606401610455565b600060075483610b4491906111a3565b610b5690670de0b6b3a76400006111a3565b6002546040517f40c10f19000000000000000000000000000000000000000000000000000000008152600160a060020a038781166004830152602482018490529293509116906340c10f1990604401600060405180830381600087803b158015610bbf57600080fd5b505af1158015610bd3573d6000803e3d6000fd5b50505050600160a060020a03841660009081526003602052604081206001018054839290610c0290849061135d565b9091555050600160a060020a03841660008181526003602081905260409182902042910155517fb51b16cb4103a8ce441e52afe5cfabab49df83ba6b570adcde7724f975bdf7d090610c5790849086906113a0565b60405180910390a250505050565b610c6d610dfd565b600160a060020a038116610cb0576040517f1e4fbdf700000000000000000000000000000000000000000000000000000000815260006004820152602401610455565b6109f181610e86565b600460205260009081526040902080548190610cd4906111ba565b80601f0160208091040260200160405190810160405280929190818152602001828054610d00906111ba565b8015610d4d5780601f10610d2257610100808354040283529160200191610d4d565b820191906000526020600020905b815481529060010190602001808311610d3057829003601f168201915b505050505090806001018054610d62906111ba565b80601f0160208091040260200160405190810160405280929190818152602001828054610d8e906111ba565b8015610ddb5780601f10610db057610100808354040283529160200191610ddb565b820191906000526020600020905b815481529060010190602001808311610dbe57829003601f168201915b50505050600283015460038401546004909401549293909260ff909116915085565b600054600160a060020a03163314610a06576040517f118cdaa7000000000000000000000000000000000000000000000000000000008152336004820152602401610455565b600260015403610e7f576040517f3ee5aeb500000000000000000000000000000000000000000000000000000000815260040160405180910390fd5b6002600155565b60008054600160a060020a0383811673ffffffffffffffffffffffffffffffffffffffff19831681178455604051919092169283917f8be0079c531659141344cd1fd0a4f28419497f9722a3daafe3b4186f6b6457e09190a35050565b7f4e487b7100000000000000000000000000000000000000000000000000000000600052604160045260246000fd5b600082601f830112610f2357600080fd5b813567ffffffffffffffff80821115610f3e57610f3e610ee3565b604051601f8301601f19908116603f01168101908282118183101715610f6657610f66610ee3565b81604052838152866020858801011115610f7f57600080fd5b836020870160208301376000602085830101528094505050505092915050565b60008060008060808587031215610fb557600080fd5b843567ffffffffffffffff80821115610fcd57600080fd5b610fd988838901610f12565b95506020870135915080821115610fef57600080fd5b50610ffc87828801610f12565b949794965050505060408301359260600135919050565b60006020828403121561102557600080fd5b5035919050565b8035600160a060020a038116811461104357600080fd5b919050565b60006020828403121561105a57600080fd5b6110638261102c565b9392505050565b6000806040838503121561107d57600080fd5b6110868361102c565b946020939093013593505050565b6000806000606084860312156110a957600080fd5b6110b28461102c565b925060208401359150604084013567ffffffffffffffff8111156110d557600080fd5b6110e186828701610f12565b9150509250925092565b6000815180845260005b81811015611111576020818501810151868301820152016110f5565b506000602082860101526020601f19601f83011685010191505092915050565b60a08152600061114460a08301886110eb565b828103602084015261115681886110eb565b60408401969096525050911515606083015260809091015292915050565b7f4e487b7100000000000000000000000000000000000000000000000000000000600052601160045260246000fd5b8082028115828204841417610abb57610abb611174565b6002810460018216806111ce57607f821691505b602082108103611207577f4e487b7100000000000000000000000000000000000000000000000000000000600052602260045260246000fd5b50919050565b601f821115611257576000818152602081206020601f860104810160208610156112345750805b6020601f860104820191505b8181101561125357828155600101611240565b5050505b505050565b815167ffffffffffffffff81111561127657611276610ee3565b61128a8161128484546111ba565b8461120d565b602080601f8311600181146112c357600084156112a75750858301515b60028086026008870290910a6000190419821617865550611253565b600085815260208120601f198616915b828110156112f2578886015182559484019460019091019084016112d3565b508582101561131257878501516008601f88160260020a60001904191681555b5050505050600202600101905550565b60408152600061133560408301856110eb565b90508260208301529392505050565b60006001820161135657611356611174565b5060010190565b80820180821115610abb57610abb611174565b60006020828403121561138257600080fd5b5051919050565b60008161139857611398611174565b506000190190565b8281526040602082015260006113b960408301846110eb565b94935050505056fea2646970667358221220161f02e3cbd51d22fa281c3931e44c9c808c36be85228f00071b4be88294d6b464736f6c63430008150033",
  "immutableReferences": {},
  "source": "// contracts/LoyaltyProgram.sol\r\n// SPDX-License-Identifier: MIT\r\npragma solidity ^0.8.21;\r\n\r\nimport \"./LoyaltyToken.sol\";\r\nimport \"@openzeppelin/contracts/access/Ownable.sol\";\r\nimport \"@openzeppelin/contracts/utils/ReentrancyGuard.sol\";\r\n\r\ncontract LoyaltyProgram is Ownable, ReentrancyGuard {\r\n    LoyaltyToken public loyaltyToken;\r\n    \r\n    struct Customer {\r\n        bool isRegistered;\r\n        uint256 totalEarned;\r\n        uint256 totalRedeemed;\r\n        uint256 lastActivity;\r\n    }\r\n    \r\n    struct Reward {\r\n        string name;\r\n        string description;\r\n        uint256 cost;\r\n        bool isActive;\r\n        uint256 stock;\r\n    }\r\n    \r\n    mapping(address => Customer) public customers;\r\n    mapping(uint256 => Reward) public rewards;\r\n    mapping(address => mapping(uint256 => bool)) public customerRedemptions;\r\n    \r\n    uint256 public nextRewardId = 1;\r\n    uint256 public pointsPerPurchase = 10; // Points earned per dollar spent\r\n    \r\n    event CustomerRegistered(address indexed customer);\r\n    event PointsEarned(address indexed customer, uint256 amount, string reason);\r\n    event PointsRedeemed(address indexed customer, uint256 rewardId, uint256 cost);\r\n    event RewardAdded(uint256 indexed rewardId, string name, uint256 cost);\r\n    \r\n    constructor(address _tokenAddress) Ownable(msg.sender) {\r\n        loyaltyToken = LoyaltyToken(_tokenAddress);\r\n    }\r\n    \r\n    function registerCustomer() public {\r\n        require(!customers[msg.sender].isRegistered, \"Customer already registered\");\r\n        \r\n        customers[msg.sender] = Customer({\r\n            isRegistered: true,\r\n            totalEarned: 0,\r\n            totalRedeemed: 0,\r\n            lastActivity: block.timestamp\r\n        });\r\n        \r\n        // Welcome bonus\r\n        loyaltyToken.mint(msg.sender, 50 * 10**18);\r\n        customers[msg.sender].totalEarned += 50 * 10**18;\r\n        \r\n        emit CustomerRegistered(msg.sender);\r\n        emit PointsEarned(msg.sender, 50 * 10**18, \"Welcome bonus\");\r\n    }\r\n    \r\n    function earnPoints(address customer, uint256 purchaseAmount, string memory reason) \r\n        public onlyOwner {\r\n        require(customers[customer].isRegistered, \"Customer not registered\");\r\n        \r\n        uint256 points = purchaseAmount * pointsPerPurchase * 10**18;\r\n        loyaltyToken.mint(customer, points);\r\n        \r\n        customers[customer].totalEarned += points;\r\n        customers[customer].lastActivity = block.timestamp;\r\n        \r\n        emit PointsEarned(customer, points, reason);\r\n    }\r\n    \r\n    function addReward(\r\n        string memory name,\r\n        string memory description,\r\n        uint256 cost,\r\n        uint256 stock\r\n    ) public onlyOwner {\r\n        rewards[nextRewardId] = Reward({\r\n            name: name,\r\n            description: description,\r\n            cost: cost * 10**18,\r\n            isActive: true,\r\n            stock: stock\r\n        });\r\n        \r\n        emit RewardAdded(nextRewardId, name, cost * 10**18);\r\n        nextRewardId++;\r\n    }\r\n    \r\n    function redeemReward(uint256 rewardId) public nonReentrant {\r\n        require(customers[msg.sender].isRegistered, \"Customer not registered\");\r\n        require(rewards[rewardId].isActive, \"Reward not active\");\r\n        require(rewards[rewardId].stock > 0, \"Reward out of stock\");\r\n        require(!customerRedemptions[msg.sender][rewardId], \"Reward already redeemed\");\r\n        \r\n        uint256 cost = rewards[rewardId].cost;\r\n        require(loyaltyToken.balanceOf(msg.sender) >= cost, \"Insufficient points\");\r\n        \r\n        loyaltyToken.burn(msg.sender, cost);\r\n        customers[msg.sender].totalRedeemed += cost;\r\n        customers[msg.sender].lastActivity = block.timestamp;\r\n        rewards[rewardId].stock--;\r\n        customerRedemptions[msg.sender][rewardId] = true;\r\n        \r\n        emit PointsRedeemed(msg.sender, rewardId, cost);\r\n    }\r\n    \r\n    function getCustomerBalance(address customer) public view returns (uint256) {\r\n        return loyaltyToken.balanceOf(customer);\r\n    }\r\n    \r\n    function setPointsPerPurchase(uint256 _pointsPerPurchase) public onlyOwner {\r\n        pointsPerPurchase = _pointsPerPurchase;\r\n    }\r\n    \r\n    function toggleRewardStatus(uint256 rewardId) public onlyOwner {\r\n        rewards[rewardId].isActive = !rewards[rewardId].isActive;\r\n    }\r\n}",
  "sourcePath": "C:\\Users\\vishesh\\web3-loyalty-program\\contracts\\LoyaltyProgram.sol",
  "compiler": {
    "name": "solc",
    "version": "0.8.21+commit.d9974bed.Emscripten.clang"
  },
  "schemaVersion": "3.4.16",
  "updatedAt": "2025-05-26T07:52:55.965Z",
  "networkType": "ethereum",
  "devdoc": {
    "errors": {
      "OwnableInvalidOwner(address)": [
        {
          "details": "The owner is not a valid owner account. (eg. `address(0)`)"
        }
      ],
      "OwnableUnauthorizedAccount(address)": [
        {
          "details": "The caller account is not authorized to perform an operation."
        }
      ],
      "ReentrancyGuardReentrantCall()": [
        {
          "details": "Unauthorized reentrant call."
        }
      ]
    },
    "kind": "dev",
    "methods": {
      "owner()": {
        "details": "Returns the address of the current owner."
      },
      "renounceOwnership()": {
        "details": "Leaves the contract without owner. It will not be possible to call `onlyOwner` functions. Can only be called by the current owner. NOTE: Renouncing ownership will leave the contract without an owner, thereby disabling any functionality that is only available to the owner."
      },
      "transferOwnership(address)": {
        "details": "Transfers ownership of the contract to a new account (`newOwner`). Can only be called by the current owner."
      }
    },
    "version": 1
  },
  "userdoc": {
    "kind": "user",
    "methods": {},
    "version": 1
  }
}