{
  "contractName": "LoyaltyProgram",
  "abi": [
    {
      "inputs": [
        {
          "internalType": "address",
          "name": "tokenAddress",
          "type": "address"
        }
      ],
      "stateMutability": "nonpayable",
      "type": "constructor"
    },
    {
      "anonymous": false,
      "inputs": [
        {
          "indexed": true,
          "internalType": "address",
          "name": "customer",
          "type": "address"
        }
      ],
      "name": "CustomerRegistered",
      "type": "event"
    },
    {
      "anonymous": false,
      "inputs": [
        {
          "indexed": true,
          "internalType": "address",
          "name": "previousOwner",
          "type": "address"
        },
        {
          "indexed": true,
          "internalType": "address",
          "name": "newOwner",
          "type": "address"
        }
      ],
      "name": "OwnershipTransferred",
      "type": "event"
    },
    {
      "anonymous": false,
      "inputs": [
        {
          "indexed": true,
          "internalType": "address",
          "name": "customer",
          "type": "address"
        },
        {
          "indexed": false,
          "internalType": "uint256",
          "name": "rewardId",
          "type": "uint256"
        },
        {
          "indexed": false,
          "internalType": "uint256",
          "name": "cost",
          "type": "uint256"
        }
      ],
      "name": "PointsRedeemed",
      "type": "event"
    },
    {
      "anonymous": false,
      "inputs": [
        {
          "indexed": true,
          "internalType": "address",
          "name": "customer",
          "type": "address"
        },
        {
          "indexed": false,
          "internalType": "uint256",
          "name": "rewardId",
          "type": "uint256"
        },
        {
          "indexed": false,
          "internalType": "string",
          "name": "rewardName",
          "type": "string"
        },
        {
          "indexed": false,
          "internalType": "uint256",
          "name": "cost",
          "type": "uint256"
        }
      ],
      "name": "RedeemSuccess",
      "type": "event"
    },
    {
      "anonymous": false,
      "inputs": [
        {
          "indexed": true,
          "internalType": "uint256",
          "name": "rewardId",
          "type": "uint256"
        },
        {
          "indexed": false,
          "internalType": "string",
          "name": "name",
          "type": "string"
        },
        {
          "indexed": false,
          "internalType": "uint256",
          "name": "cost",
          "type": "uint256"
        },
        {
          "indexed": false,
          "internalType": "uint256",
          "name": "stock",
          "type": "uint256"
        }
      ],
      "name": "RewardAdded",
      "type": "event"
    },
    {
      "anonymous": false,
      "inputs": [
        {
          "indexed": true,
          "internalType": "uint256",
          "name": "rewardId",
          "type": "uint256"
        },
        {
          "indexed": false,
          "internalType": "string",
          "name": "name",
          "type": "string"
        },
        {
          "indexed": false,
          "internalType": "uint256",
          "name": "cost",
          "type": "uint256"
        },
        {
          "indexed": false,
          "internalType": "uint256",
          "name": "stock",
          "type": "uint256"
        },
        {
          "indexed": false,
          "internalType": "bool",
          "name": "active",
          "type": "bool"
        }
      ],
      "name": "RewardUpdated",
      "type": "event"
    },
    {
      "anonymous": false,
      "inputs": [
        {
          "indexed": true,
          "internalType": "address",
          "name": "customer",
          "type": "address"
        },
        {
          "indexed": false,
          "internalType": "uint256",
          "name": "amount",
          "type": "uint256"
        }
      ],
      "name": "TokensMinted",
      "type": "event"
    },
    {
      "inputs": [
        {
          "internalType": "address",
          "name": "",
          "type": "address"
        },
        {
          "internalType": "uint256",
          "name": "",
          "type": "uint256"
        }
      ],
      "name": "customerRedemptions",
      "outputs": [
        {
          "internalType": "bool",
          "name": "",
          "type": "bool"
        }
      ],
      "stateMutability": "view",
      "type": "function",
      "constant": true
    },
    {
      "inputs": [
        {
          "internalType": "address",
          "name": "",
          "type": "address"
        }
      ],
      "name": "customers",
      "outputs": [
        {
          "internalType": "bool",
          "name": "isRegistered",
          "type": "bool"
        },
        {
          "internalType": "uint256",
          "name": "totalRedeemed",
          "type": "uint256"
        },
        {
          "internalType": "uint256",
          "name": "lastActivity",
          "type": "uint256"
        }
      ],
      "stateMutability": "view",
      "type": "function",
      "constant": true
    },
    {
      "inputs": [],
      "name": "loyaltyToken",
      "outputs": [
        {
          "internalType": "contract ILoyaltyToken",
          "name": "",
          "type": "address"
        }
      ],
      "stateMutability": "view",
      "type": "function",
      "constant": true
    },
    {
      "inputs": [],
      "name": "owner",
      "outputs": [
        {
          "internalType": "address",
          "name": "",
          "type": "address"
        }
      ],
      "stateMutability": "view",
      "type": "function",
      "constant": true
    },
    {
      "inputs": [],
      "name": "renounceOwnership",
      "outputs": [],
      "stateMutability": "nonpayable",
      "type": "function"
    },
    {
      "inputs": [],
      "name": "rewardCount",
      "outputs": [
        {
          "internalType": "uint256",
          "name": "",
          "type": "uint256"
        }
      ],
      "stateMutability": "view",
      "type": "function",
      "constant": true
    },
    {
      "inputs": [
        {
          "internalType": "uint256",
          "name": "",
          "type": "uint256"
        }
      ],
      "name": "rewards",
      "outputs": [
        {
          "internalType": "string",
          "name": "name",
          "type": "string"
        },
        {
          "internalType": "uint256",
          "name": "cost",
          "type": "uint256"
        },
        {
          "internalType": "uint256",
          "name": "stock",
          "type": "uint256"
        },
        {
          "internalType": "bool",
          "name": "isActive",
          "type": "bool"
        }
      ],
      "stateMutability": "view",
      "type": "function",
      "constant": true
    },
    {
      "inputs": [
        {
          "internalType": "address",
          "name": "newOwner",
          "type": "address"
        }
      ],
      "name": "transferOwnership",
      "outputs": [],
      "stateMutability": "nonpayable",
      "type": "function"
    },
    {
      "inputs": [],
      "name": "registerCustomer",
      "outputs": [],
      "stateMutability": "nonpayable",
      "type": "function"
    },
    {
      "inputs": [
        {
          "internalType": "uint256",
          "name": "rewardId",
          "type": "uint256"
        }
      ],
      "name": "redeemReward",
      "outputs": [],
      "stateMutability": "nonpayable",
      "type": "function"
    },
    {
      "inputs": [
        {
          "internalType": "string",
          "name": "name",
          "type": "string"
        },
        {
          "internalType": "uint256",
          "name": "cost",
          "type": "uint256"
        },
        {
          "internalType": "uint256",
          "name": "stock",
          "type": "uint256"
        }
      ],
      "name": "addReward",
      "outputs": [],
      "stateMutability": "nonpayable",
      "type": "function"
    },
    {
      "inputs": [
        {
          "internalType": "uint256",
          "name": "rewardId",
          "type": "uint256"
        },
        {
          "internalType": "string",
          "name": "name",
          "type": "string"
        },
        {
          "internalType": "uint256",
          "name": "cost",
          "type": "uint256"
        },
        {
          "internalType": "uint256",
          "name": "stock",
          "type": "uint256"
        },
        {
          "internalType": "bool",
          "name": "isActive",
          "type": "bool"
        }
      ],
      "name": "updateReward",
      "outputs": [],
      "stateMutability": "nonpayable",
      "type": "function"
    },
    {
      "inputs": [
        {
          "internalType": "address",
          "name": "customer",
          "type": "address"
        },
        {
          "internalType": "uint256",
          "name": "amount",
          "type": "uint256"
        }
      ],
      "name": "mintTokens",
      "outputs": [],
      "stateMutability": "nonpayable",
      "type": "function"
    },
    {
      "inputs": [
        {
          "internalType": "uint256",
          "name": "rewardId",
          "type": "uint256"
        },
        {
          "internalType": "bool",
          "name": "isActive",
          "type": "bool"
        }
      ],
      "name": "setRewardActive",
      "outputs": [],
      "stateMutability": "nonpayable",
      "type": "function"
    },
    {
      "inputs": [
        {
          "internalType": "uint256",
          "name": "rewardId",
          "type": "uint256"
        },
        {
          "internalType": "uint256",
          "name": "newStock",
          "type": "uint256"
        }
      ],
      "name": "restockReward",
      "outputs": [],
      "stateMutability": "nonpayable",
      "type": "function"
    },
    {
      "inputs": [
        {
          "internalType": "uint256",
          "name": "rewardId",
          "type": "uint256"
        }
      ],
      "name": "getReward",
      "outputs": [
        {
          "components": [
            {
              "internalType": "string",
              "name": "name",
              "type": "string"
            },
            {
              "internalType": "uint256",
              "name": "cost",
              "type": "uint256"
            },
            {
              "internalType": "uint256",
              "name": "stock",
              "type": "uint256"
            },
            {
              "internalType": "bool",
              "name": "isActive",
              "type": "bool"
            }
          ],
          "internalType": "struct LoyaltyProgram.Reward",
          "name": "",
          "type": "tuple"
        }
      ],
      "stateMutability": "view",
      "type": "function",
      "constant": true
    },
    {
      "inputs": [
        {
          "internalType": "address",
          "name": "customer",
          "type": "address"
        },
        {
          "internalType": "uint256",
          "name": "rewardId",
          "type": "uint256"
        }
      ],
      "name": "hasRedeemed",
      "outputs": [
        {
          "internalType": "bool",
          "name": "",
          "type": "bool"
        }
      ],
      "stateMutability": "view",
      "type": "function",
      "constant": true
    }
  ],
  "bytecode": "0x608060405234801561001057600080fd5b5060405161164c38038061164c83398101604081905261002f916100d1565b600160005561005661004864010000000061007b810204565b64010000000061007f810204565b60028054600160a060020a031916600160a060020a0392909216919091179055610101565b3390565b60018054600160a060020a03838116600160a060020a0319831681179093556040519116919082907f8be0079c531659141344cd1fd0a4f28419497f9722a3daafe3b4186f6b6457e090600090a35050565b6000602082840312156100e357600080fd5b8151600160a060020a03811681146100fa57600080fd5b9392505050565b61153c806101106000396000f3fe608060405234801561001057600080fd5b5060043610610128576000357c01000000000000000000000000000000000000000000000000000000009004806372699766116100bf5780638da5cb5b1161008e5780638da5cb5b14610297578063c0e5d300146102a8578063f0dda65c146102bb578063f2fde38b146102ce578063f301af42146102e157600080fd5b80637269976614610204578063770aa84d14610242578063790854251461026d57806379c1ef861461028457600080fd5b806331a0fb76116100fb57806331a0fb7614610186578063336989ae1461019957806351a71b17146101e9578063715018a6146101fc57600080fd5b8063080af4c51461012d5780631158dc05146101425780631c4b774b14610155578063273570111461017e575b600080fd5b61014061013b366004610fdb565b610304565b005b610140610150366004611046565b6103ed565b610168610163366004611072565b61043c565b60405161017591906110d1565b60405180910390f35b61014061053d565b610140610194366004611119565b610616565b6101cc6101a7366004611152565b60036020526000908152604090208054600182015460029092015460ff909116919083565b604080519315158452602084019290925290820152606001610175565b6101406101f7366004611072565b610657565b610140610a61565b610232610212366004611174565b600560209081526000928352604080842090915290825290205460ff1681565b6040519015158152602001610175565b60025461025590600160a060020a031681565b604051600160a060020a039091168152602001610175565b61027660065481565b604051908152602001610175565b61014061029236600461119e565b610a75565b600154600160a060020a0316610255565b6102326102b6366004611174565b610b46565b6101406102c9366004611174565b610b74565b6101406102dc366004611152565b610cad565b6102f46102ef366004611072565b610d3d565b60405161017594939291906111ec565b61030c610df2565b60065485106103395760405160e560020a62461bcd0281526004016103309061121d565b60405180910390fd5b604080516080810182528581526020808201869052818301859052831515606083015260008881526004909152919091208151819061037890826112f6565b506020820151600182015560408083015160028301556060909201516003909101805460ff19169115159190911790555185907f42ae515890ab149cfb2b3d7c2f4ad88508eb94221b8d76de9c341a5a818e003d906103de9087908790879087906111ec565b60405180910390a25050505050565b6103f5610df2565b60065482106104195760405160e560020a62461bcd0281526004016103309061121d565b600091825260046020526040909120600301805460ff1916911515919091179055565b61046960405180608001604052806060815260200160008152602001600081526020016000151581525090565b6000828152600460205260409081902081516080810190925280548290829061049190611254565b80601f01602080910402602001604051908101604052809291908181526020018280546104bd90611254565b801561050a5780601f106104df5761010080835404028352916020019161050a565b820191906000526020600020905b8154815290600101906020018083116104ed57829003601f168201915b5050509183525050600182015460208201526002820154604082015260039091015460ff16151560609091015292915050565b3360009081526003602052604090205460ff16156105a05760405160e560020a62461bcd02815260206004820152601260248201527f416c7265616479207265676973746572656400000000000000000000000000006044820152606401610330565b60408051606081018252600180825260006020808401828152428587019081523380855260039093528684209551865460ff1916901515178655905193850193909355915160029093019290925591517f155e8619f4d23b96769599cb9af87da3e06a360082869c18578011da9a06e6709190a2565b61061e610df2565b60065482106106425760405160e560020a62461bcd0281526004016103309061121d565b60009182526004602052604090912060020155565b61065f610e4f565b3360009081526003602052604090205460ff166106c15760405160e560020a62461bcd02815260206004820152601760248201527f437573746f6d6572206e6f7420726567697374657265640000000000000000006044820152606401610330565b60065481106106e55760405160e560020a62461bcd0281526004016103309061121d565b6000818152600460205260409020600381015460ff1661074a5760405160e560020a62461bcd02815260206004820152601160248201527f526577617264206e6f74206163746976650000000000000000000000000000006044820152606401610330565b60008160020154116107a15760405160e560020a62461bcd02815260206004820152601360248201527f526577617264206f7574206f662073746f636b000000000000000000000000006044820152606401610330565b33600090815260056020908152604080832085845290915290205460ff161561080f5760405160e560020a62461bcd02815260206004820152601760248201527f52657761726420616c72656164792072656465656d65640000000000000000006044820152606401610330565b60018101546002546040517f70a082310000000000000000000000000000000000000000000000000000000081523360048201528291600160a060020a0316906370a0823190602401602060405180830381865afa158015610875573d6000803e3d6000fd5b505050506040513d601f19601f8201168201806040525081019061089991906113bc565b10156108ea5760405160e560020a62461bcd02815260206004820152601360248201527f496e73756666696369656e7420706f696e7473000000000000000000000000006044820152606401610330565b6002546040517f9dc29fac00000000000000000000000000000000000000000000000000000000815233600482015260248101839052600160a060020a0390911690639dc29fac90604401600060405180830381600087803b15801561094f57600080fd5b505af1158015610963573d6000803e3d6000fd5b5050336000908152600360205260408120600101805485945090925061098a908490611404565b90915550503360009081526003602052604081204260029182015583018054916109b383611417565b9091555050336000818152600560209081526040808320878452825291829020805460ff1916600117905581518681529081018490527f8489cc43a42dbf9d33259b91b6c919c19644ac3b135272570f33f989637a1102910160405180910390a260405133907fe91f78c384c789c8df28e22f7fc803931218eec9340f4052ce85ef624671de7990610a4a9086908690869061142e565b60405180910390a25050610a5e6001600055565b50565b610a69610df2565b610a736000610eab565b565b610a7d610df2565b60408051608081018252848152602080820185905281830184905260016060830152600654600090815260049091529190912081518190610abe90826112f6565b506020820151600182015560408083015160028301556060909201516003909101805460ff191691151591909117905560065490517f8bffb0ed8bb0bbcca2bbb2b8edea0a92e00af83c6801c9e95f421e9445b6333b90610b24908690869086906114c8565b60405180910390a260068054906000610b3c836114ed565b9190505550505050565b600160a060020a038216600090815260056020908152604080832084845290915290205460ff165b92915050565b610b7c610df2565b600160a060020a03821660009081526003602052604090205460ff16610be75760405160e560020a62461bcd02815260206004820152601760248201527f437573746f6d6572206e6f7420726567697374657265640000000000000000006044820152606401610330565b6002546040517f40c10f19000000000000000000000000000000000000000000000000000000008152600160a060020a03848116600483015260248201849052909116906340c10f1990604401600060405180830381600087803b158015610c4e57600080fd5b505af1158015610c62573d6000803e3d6000fd5b5050505081600160a060020a03167f3f2c9d57c068687834f0de942a9babb9e5acab57d516d3480a3c16ee165a427382604051610ca191815260200190565b60405180910390a25050565b610cb5610df2565b600160a060020a038116610d345760405160e560020a62461bcd02815260206004820152602660248201527f4f776e61626c653a206e6577206f776e657220697320746865207a65726f206160448201527f64647265737300000000000000000000000000000000000000000000000000006064820152608401610330565b610a5e81610eab565b600460205260009081526040902080548190610d5890611254565b80601f0160208091040260200160405190810160405280929190818152602001828054610d8490611254565b8015610dd15780601f10610da657610100808354040283529160200191610dd1565b820191906000526020600020905b815481529060010190602001808311610db457829003601f168201915b50505050600183015460028401546003909401549293909290915060ff1684565b600154600160a060020a03163314610a735760405160e560020a62461bcd02815260206004820181905260248201527f4f776e61626c653a2063616c6c6572206973206e6f7420746865206f776e65726044820152606401610330565b600260005403610ea45760405160e560020a62461bcd02815260206004820152601f60248201527f5265656e7472616e637947756172643a207265656e7472616e742063616c6c006044820152606401610330565b6002600055565b60018054600160a060020a0383811673ffffffffffffffffffffffffffffffffffffffff19831681179093556040519116919082907f8be0079c531659141344cd1fd0a4f28419497f9722a3daafe3b4186f6b6457e090600090a35050565b7f4e487b7100000000000000000000000000000000000000000000000000000000600052604160045260246000fd5b600082601f830112610f4a57600080fd5b813567ffffffffffffffff80821115610f6557610f65610f0a565b604051601f8301601f19908116603f01168101908282118183101715610f8d57610f8d610f0a565b81604052838152866020858801011115610fa657600080fd5b836020870160208301376000602085830101528094505050505092915050565b80358015158114610fd657600080fd5b919050565b600080600080600060a08688031215610ff357600080fd5b85359450602086013567ffffffffffffffff81111561101157600080fd5b61101d88828901610f39565b945050604086013592506060860135915061103a60808701610fc6565b90509295509295909350565b6000806040838503121561105957600080fd5b8235915061106960208401610fc6565b90509250929050565b60006020828403121561108457600080fd5b5035919050565b6000815180845260005b818110156110b157602081850181015186830182015201611095565b506000602082860101526020601f19601f83011685010191505092915050565b6020815260008251608060208401526110ed60a084018261108b565b905060208401516040840152604084015160608401526060840151151560808401528091505092915050565b6000806040838503121561112c57600080fd5b50508035926020909101359150565b8035600160a060020a0381168114610fd657600080fd5b60006020828403121561116457600080fd5b61116d8261113b565b9392505050565b6000806040838503121561118757600080fd5b6111908361113b565b946020939093013593505050565b6000806000606084860312156111b357600080fd5b833567ffffffffffffffff8111156111ca57600080fd5b6111d686828701610f39565b9660208601359650604090950135949350505050565b6080815260006111ff608083018761108b565b60208301959095525060408101929092521515606090910152919050565b60208082526011908201527f496e76616c696420726577617264204944000000000000000000000000000000604082015260600190565b60028104600182168061126857607f821691505b6020821081036112a1577f4e487b7100000000000000000000000000000000000000000000000000000000600052602260045260246000fd5b50919050565b601f8211156112f1576000818152602081206020601f860104810160208610156112ce5750805b6020601f860104820191505b818110156112ed578281556001016112da565b5050505b505050565b815167ffffffffffffffff81111561131057611310610f0a565b6113248161131e8454611254565b846112a7565b602080601f83116001811461135d57600084156113415750858301515b60028086026008870290910a60001904198216178655506112ed565b600085815260208120601f198616915b8281101561138c5788860151825594840194600190910190840161136d565b50858210156113ac57878501516008601f88160260020a60001904191681555b5050505050600202600101905550565b6000602082840312156113ce57600080fd5b5051919050565b7f4e487b7100000000000000000000000000000000000000000000000000000000600052601160045260246000fd5b80820180821115610b6e57610b6e6113d5565b600081611426576114266113d5565b506000190190565b838152600060206060818401526000855461144881611254565b806060870152608060018084166000811461146a5760018114611483576114b1565b60ff1985168984015283151587028901830195506114b1565b8a6000528660002060005b858110156114a95781548b820186015290830190880161148e565b8a0184019650505b505050505060409390930193909352509392505050565b6060815260006114db606083018661108b565b60208301949094525060400152919050565b6000600182016114ff576114ff6113d5565b506001019056fea26469706673582212201792bb1cbffbd7dcf575481951f3339aba8fa45ce670b15e1d1bee8bed7b9b2a64736f6c63430008140033",
  "immutableReferences": {},
  "source": "// SPDX-License-Identifier: MIT\r\npragma solidity ^0.8.20;\r\n\r\nimport \"@openzeppelin/contracts/security/ReentrancyGuard.sol\";\r\nimport \"@openzeppelin/contracts/access/Ownable.sol\";\r\n\r\ninterface ILoyaltyToken {\r\n    function balanceOf(address account) external view returns (uint256);\r\n    function burn(address from, uint256 amount) external;\r\n    function mint(address to, uint256 amount) external;\r\n}\r\n\r\ncontract LoyaltyProgram is ReentrancyGuard, Ownable {\r\n    ILoyaltyToken public loyaltyToken;\r\n\r\n    constructor(address tokenAddress) {\r\n        loyaltyToken = ILoyaltyToken(tokenAddress);\r\n    }\r\n\r\n    struct Customer {\r\n        bool isRegistered;\r\n        uint256 totalRedeemed;\r\n        uint256 lastActivity;\r\n    }\r\n\r\n    struct Reward {\r\n        string name;\r\n        uint256 cost;\r\n        uint256 stock;\r\n        bool isActive;\r\n    }\r\n\r\n    mapping(address => Customer) public customers;\r\n    mapping(uint256 => Reward) public rewards;\r\n    mapping(address => mapping(uint256 => bool)) public customerRedemptions;\r\n\r\n    uint256 public rewardCount;\r\n\r\n    // Events\r\n    event CustomerRegistered(address indexed customer);\r\n    event RewardAdded(uint256 indexed rewardId, string name, uint256 cost, uint256 stock);\r\n    event RewardUpdated(uint256 indexed rewardId, string name, uint256 cost, uint256 stock, bool active);\r\n    event PointsRedeemed(address indexed customer, uint256 rewardId, uint256 cost);\r\n    event RedeemSuccess(address indexed customer, uint256 rewardId, string rewardName, uint256 cost);\r\n    event TokensMinted(address indexed customer, uint256 amount);\r\n\r\n    // Customer registration\r\n    function registerCustomer() external {\r\n        require(!customers[msg.sender].isRegistered, \"Already registered\");\r\n        customers[msg.sender] = Customer({\r\n            isRegistered: true,\r\n            totalRedeemed: 0,\r\n            lastActivity: block.timestamp\r\n        });\r\n        emit CustomerRegistered(msg.sender);\r\n    }\r\n\r\n    // Redeem reward\r\n    function redeemReward(uint256 rewardId) external nonReentrant {\r\n        require(customers[msg.sender].isRegistered, \"Customer not registered\");\r\n        require(rewardId < rewardCount, \"Invalid reward ID\");\r\n\r\n        Reward storage reward = rewards[rewardId];\r\n        require(reward.isActive, \"Reward not active\");\r\n        require(reward.stock > 0, \"Reward out of stock\");\r\n        require(!customerRedemptions[msg.sender][rewardId], \"Reward already redeemed\");\r\n\r\n        uint256 cost = reward.cost;\r\n        require(loyaltyToken.balanceOf(msg.sender) >= cost, \"Insufficient points\");\r\n\r\n        loyaltyToken.burn(msg.sender, cost);\r\n\r\n        customers[msg.sender].totalRedeemed += cost;\r\n        customers[msg.sender].lastActivity = block.timestamp;\r\n        reward.stock--;\r\n        customerRedemptions[msg.sender][rewardId] = true;\r\n\r\n        emit PointsRedeemed(msg.sender, rewardId, cost);\r\n        emit RedeemSuccess(msg.sender, rewardId, reward.name, cost);\r\n    }\r\n\r\n    // Admin functions\r\n\r\n    function addReward(string memory name, uint256 cost, uint256 stock) external onlyOwner {\r\n        rewards[rewardCount] = Reward({\r\n            name: name,\r\n            cost: cost,\r\n            stock: stock,\r\n            isActive: true\r\n        });\r\n\r\n        emit RewardAdded(rewardCount, name, cost, stock);\r\n        rewardCount++;\r\n    }\r\n\r\n    function updateReward(\r\n        uint256 rewardId,\r\n        string memory name,\r\n        uint256 cost,\r\n        uint256 stock,\r\n        bool isActive\r\n    ) external onlyOwner {\r\n        require(rewardId < rewardCount, \"Invalid reward ID\");\r\n        rewards[rewardId] = Reward({\r\n            name: name,\r\n            cost: cost,\r\n            stock: stock,\r\n            isActive: isActive\r\n        });\r\n\r\n        emit RewardUpdated(rewardId, name, cost, stock, isActive);\r\n    }\r\n\r\n    function mintTokens(address customer, uint256 amount) external onlyOwner {\r\n        require(customers[customer].isRegistered, \"Customer not registered\");\r\n        loyaltyToken.mint(customer, amount);\r\n        emit TokensMinted(customer, amount);\r\n    }\r\n\r\n    function setRewardActive(uint256 rewardId, bool isActive) external onlyOwner {\r\n        require(rewardId < rewardCount, \"Invalid reward ID\");\r\n        rewards[rewardId].isActive = isActive;\r\n    }\r\n\r\n    function restockReward(uint256 rewardId, uint256 newStock) external onlyOwner {\r\n        require(rewardId < rewardCount, \"Invalid reward ID\");\r\n        rewards[rewardId].stock = newStock;\r\n    }\r\n\r\n    // Getters\r\n\r\n    function getReward(uint256 rewardId) external view returns (Reward memory) {\r\n        return rewards[rewardId];\r\n    }\r\n\r\n    function hasRedeemed(address customer, uint256 rewardId) external view returns (bool) {\r\n        return customerRedemptions[customer][rewardId];\r\n    }\r\n}\r\n",
  "sourcePath": "C:\\web3-loyalty-program\\contracts\\LoyaltyProgram.sol",
  "compiler": {
    "name": "solc",
    "version": "0.8.20+commit.a1b79de6.Emscripten.clang"
  },
  "schemaVersion": "3.4.16",
  "updatedAt": "2025-06-27T07:21:11.144Z",
  "networkType": "ethereum",
  "devdoc": {
    "kind": "dev",
    "methods": {
      "owner()": {
        "details": "Returns the address of the current owner."
      },
      "renounceOwnership()": {
        "details": "Leaves the contract without owner. It will not be possible to call `onlyOwner` functions. Can only be called by the current owner. NOTE: Renouncing ownership will leave the contract without an owner, thereby disabling any functionality that is only available to the owner."
      },
      "transferOwnership(address)": {
        "details": "Transfers ownership of the contract to a new account (`newOwner`). Can only be called by the current owner."
      }
    },
    "version": 1
  },
  "userdoc": {
    "kind": "user",
    "methods": {},
    "version": 1
  }
}